{
  "contractName": "EvenOdd",
  "abi": [
    {
      "anonymous": false,
      "inputs": [
        {
          "indexed": false,
          "internalType": "address",
          "name": "addr",
          "type": "address"
        },
        {
          "indexed": false,
          "internalType": "uint256",
          "name": "value",
          "type": "uint256"
        },
        {
          "indexed": false,
          "internalType": "uint8",
          "name": "door",
          "type": "uint8"
        }
      ],
      "name": "BetEvent",
      "type": "event"
    },
    {
      "anonymous": false,
      "inputs": [
        {
          "indexed": false,
          "internalType": "uint8",
          "name": "door",
          "type": "uint8"
        }
      ],
      "name": "DoorOpenEvent",
      "type": "event"
    },
    {
      "anonymous": false,
      "inputs": [
        {
          "indexed": true,
          "internalType": "address",
          "name": "previousOwner",
          "type": "address"
        },
        {
          "indexed": true,
          "internalType": "address",
          "name": "newOwner",
          "type": "address"
        }
      ],
      "name": "OwnershipTransferred",
      "type": "event"
    },
    {
      "inputs": [
        {
          "internalType": "uint256",
          "name": "",
          "type": "uint256"
        }
      ],
      "name": "betTimes",
      "outputs": [
        {
          "internalType": "address",
          "name": "addr",
          "type": "address"
        },
        {
          "internalType": "uint256",
          "name": "value",
          "type": "uint256"
        },
        {
          "internalType": "uint8",
          "name": "door",
          "type": "uint8"
        }
      ],
      "stateMutability": "view",
      "type": "function"
    },
    {
      "inputs": [],
      "name": "owner",
      "outputs": [
        {
          "internalType": "address",
          "name": "",
          "type": "address"
        }
      ],
      "stateMutability": "view",
      "type": "function"
    },
    {
      "inputs": [],
      "name": "renounceOwnership",
      "outputs": [],
      "stateMutability": "nonpayable",
      "type": "function"
    },
    {
      "inputs": [
        {
          "internalType": "address",
          "name": "newOwner",
          "type": "address"
        }
      ],
      "name": "transferOwnership",
      "outputs": [],
      "stateMutability": "nonpayable",
      "type": "function"
    },
    {
      "inputs": [
        {
          "internalType": "uint8",
          "name": "_door",
          "type": "uint8"
        }
      ],
      "name": "bet",
      "outputs": [],
      "stateMutability": "payable",
      "type": "function"
    },
    {
      "inputs": [],
      "name": "randomDoor",
      "outputs": [],
      "stateMutability": "nonpayable",
      "type": "function"
    },
    {
      "inputs": [],
      "name": "getTotalBet",
      "outputs": [
        {
          "internalType": "uint256",
          "name": "",
          "type": "uint256"
        },
        {
          "internalType": "uint256",
          "name": "",
          "type": "uint256"
        }
      ],
      "stateMutability": "view",
      "type": "function"
    },
    {
      "inputs": [],
      "name": "getBalance",
      "outputs": [
        {
          "internalType": "uint256",
          "name": "",
          "type": "uint256"
        }
      ],
      "stateMutability": "view",
      "type": "function"
    }
  ],
  "bytecode": "0x60806040526000600155600060035534801561001a57600080fd5b5061003761002c61003c60201b60201c565b61004460201b60201c565b610108565b600033905090565b60008060009054906101000a900473ffffffffffffffffffffffffffffffffffffffff169050816000806101000a81548173ffffffffffffffffffffffffffffffffffffffff021916908373ffffffffffffffffffffffffffffffffffffffff1602179055508173ffffffffffffffffffffffffffffffffffffffff168173ffffffffffffffffffffffffffffffffffffffff167f8be0079c531659141344cd1fd0a4f28419497f9722a3daafe3b4186f6b6457e060405160405180910390a35050565b611054806101176000396000f3fe60806040526004361061007b5760003560e01c8063bfe38df51161004e578063bfe38df51461012c578063d0821b0e14610158578063d908f7b214610174578063f2fde38b1461018b5761007b565b806312065fe014610080578063715018a6146100ab5780638494f432146100c25780638da5cb5b14610101575b600080fd5b34801561008c57600080fd5b506100956101b4565b6040516100a29190610a30565b60405180910390f35b3480156100b757600080fd5b506100c0610238565b005b3480156100ce57600080fd5b506100e960048036038101906100e49190610a7c565b6102c0565b6040516100f893929190610b06565b60405180910390f35b34801561010d57600080fd5b50610116610327565b6040516101239190610b3d565b60405180910390f35b34801561013857600080fd5b50610141610350565b60405161014f929190610b58565b60405180910390f35b610172600480360381019061016d9190610bad565b610489565b005b34801561018057600080fd5b506101896105cb565b005b34801561019757600080fd5b506101b260048036038101906101ad9190610c06565b610854565b005b60006101be61094b565b73ffffffffffffffffffffffffffffffffffffffff166101dc610327565b73ffffffffffffffffffffffffffffffffffffffff1614610232576040517f08c379a000000000000000000000000000000000000000000000000000000000815260040161022990610c90565b60405180910390fd5b47905090565b61024061094b565b73ffffffffffffffffffffffffffffffffffffffff1661025e610327565b73ffffffffffffffffffffffffffffffffffffffff16146102b4576040517f08c379a00000000000000000000000000000000000000000000000000000000081526004016102ab90610c90565b60405180910390fd5b6102be6000610953565b565b600281815481106102d057600080fd5b90600052602060002090600302016000915090508060000160009054906101000a900473ffffffffffffffffffffffffffffffffffffffff16908060010154908060020160009054906101000a900460ff16905083565b60008060009054906101000a900473ffffffffffffffffffffffffffffffffffffffff16905090565b600080600080600060035490505b60028054905081101561047c5760006002828154811061038157610380610cb0565b5b90600052602060002090600302016040518060600160405290816000820160009054906101000a900473ffffffffffffffffffffffffffffffffffffffff1673ffffffffffffffffffffffffffffffffffffffff1673ffffffffffffffffffffffffffffffffffffffff168152602001600182015481526020016002820160009054906101000a900460ff1660ff1660ff16815250509050600060ff16816040015160ff16036104425780602001518461043b9190610d0e565b9350610468565b600160ff16816040015160ff1603610467578060200151836104649190610d0e565b92505b5b50808061047490610d64565b91505061035e565b5081819350935050509091565b600060ff168160ff1614806104a45750600160ff168160ff16145b6104ad57600080fd5b600034116104ba57600080fd5b600260405180606001604052803373ffffffffffffffffffffffffffffffffffffffff1681526020013481526020018360ff16815250908060018154018082558091505060019003906000526020600020906003020160009091909190915060008201518160000160006101000a81548173ffffffffffffffffffffffffffffffffffffffff021916908373ffffffffffffffffffffffffffffffffffffffff1602179055506020820151816001015560408201518160020160006101000a81548160ff021916908360ff16021790555050507f15d9054ac7345fe07a4ce6d2ff9901210af236fab1f5a7e9f373db555eca4db93334836040516105c093929190610b06565b60405180910390a150565b6105d361094b565b73ffffffffffffffffffffffffffffffffffffffff166105f1610327565b73ffffffffffffffffffffffffffffffffffffffff1614610647576040517f08c379a000000000000000000000000000000000000000000000000000000000815260040161063e90610c90565b60405180910390fd5b6001600081548092919061065a90610d64565b919050555060006002423360015460405160200161067a93929190610e15565b6040516020818303038152906040528051906020012060001c61069d9190610e81565b9050600060035490505b60028054905081101561080d576000600282815481106106ca576106c9610cb0565b5b90600052602060002090600302016040518060600160405290816000820160009054906101000a900473ffffffffffffffffffffffffffffffffffffffff1673ffffffffffffffffffffffffffffffffffffffff1673ffffffffffffffffffffffffffffffffffffffff168152602001600182015481526020016002820160009054906101000a900460ff1660ff1660ff168152505090508260ff16816040015160ff16036107f957806000015173ffffffffffffffffffffffffffffffffffffffff166108fc6064600260ff1684602001516107a79190610eb2565b6107b19190610f0c565b836020015160026107c29190610eb2565b6107cc9190610f3d565b9081150290604051600060405180830381858888f193505050501580156107f7573d6000803e3d6000fd5b505b50808061080590610d64565b9150506106a7565b506002805490506003819055507f94bbec3d6d993b934d7186e157dc77ef62ddcb9d8a422e3ff61bc72ef2e45e6d816040516108499190610f71565b60405180910390a150565b61085c61094b565b73ffffffffffffffffffffffffffffffffffffffff1661087a610327565b73ffffffffffffffffffffffffffffffffffffffff16146108d0576040517f08c379a00000000000000000000000000000000000000000000000000000000081526004016108c790610c90565b60405180910390fd5b600073ffffffffffffffffffffffffffffffffffffffff168173ffffffffffffffffffffffffffffffffffffffff160361093f576040517f08c379a000000000000000000000000000000000000000000000000000000000815260040161093690610ffe565b60405180910390fd5b61094881610953565b50565b600033905090565b60008060009054906101000a900473ffffffffffffffffffffffffffffffffffffffff169050816000806101000a81548173ffffffffffffffffffffffffffffffffffffffff021916908373ffffffffffffffffffffffffffffffffffffffff1602179055508173ffffffffffffffffffffffffffffffffffffffff168173ffffffffffffffffffffffffffffffffffffffff167f8be0079c531659141344cd1fd0a4f28419497f9722a3daafe3b4186f6b6457e060405160405180910390a35050565b6000819050919050565b610a2a81610a17565b82525050565b6000602082019050610a456000830184610a21565b92915050565b600080fd5b610a5981610a17565b8114610a6457600080fd5b50565b600081359050610a7681610a50565b92915050565b600060208284031215610a9257610a91610a4b565b5b6000610aa084828501610a67565b91505092915050565b600073ffffffffffffffffffffffffffffffffffffffff82169050919050565b6000610ad482610aa9565b9050919050565b610ae481610ac9565b82525050565b600060ff82169050919050565b610b0081610aea565b82525050565b6000606082019050610b1b6000830186610adb565b610b286020830185610a21565b610b356040830184610af7565b949350505050565b6000602082019050610b526000830184610adb565b92915050565b6000604082019050610b6d6000830185610a21565b610b7a6020830184610a21565b9392505050565b610b8a81610aea565b8114610b9557600080fd5b50565b600081359050610ba781610b81565b92915050565b600060208284031215610bc357610bc2610a4b565b5b6000610bd184828501610b98565b91505092915050565b610be381610ac9565b8114610bee57600080fd5b50565b600081359050610c0081610bda565b92915050565b600060208284031215610c1c57610c1b610a4b565b5b6000610c2a84828501610bf1565b91505092915050565b600082825260208201905092915050565b7f4f776e61626c653a2063616c6c6572206973206e6f7420746865206f776e6572600082015250565b6000610c7a602083610c33565b9150610c8582610c44565b602082019050919050565b60006020820190508181036000830152610ca981610c6d565b9050919050565b7f4e487b7100000000000000000000000000000000000000000000000000000000600052603260045260246000fd5b7f4e487b7100000000000000000000000000000000000000000000000000000000600052601160045260246000fd5b6000610d1982610a17565b9150610d2483610a17565b9250827fffffffffffffffffffffffffffffffffffffffffffffffffffffffffffffffff03821115610d5957610d58610cdf565b5b828201905092915050565b6000610d6f82610a17565b91507fffffffffffffffffffffffffffffffffffffffffffffffffffffffffffffffff8203610da157610da0610cdf565b5b600182019050919050565b6000819050919050565b610dc7610dc282610a17565b610dac565b82525050565b60008160601b9050919050565b6000610de582610dcd565b9050919050565b6000610df782610dda565b9050919050565b610e0f610e0a82610ac9565b610dec565b82525050565b6000610e218286610db6565b602082019150610e318285610dfe565b601482019150610e418284610db6565b602082019150819050949350505050565b7f4e487b7100000000000000000000000000000000000000000000000000000000600052601260045260246000fd5b6000610e8c82610a17565b9150610e9783610a17565b925082610ea757610ea6610e52565b5b828206905092915050565b6000610ebd82610a17565b9150610ec883610a17565b9250817fffffffffffffffffffffffffffffffffffffffffffffffffffffffffffffffff0483118215151615610f0157610f00610cdf565b5b828202905092915050565b6000610f1782610a17565b9150610f2283610a17565b925082610f3257610f31610e52565b5b828204905092915050565b6000610f4882610a17565b9150610f5383610a17565b925082821015610f6657610f65610cdf565b5b828203905092915050565b6000602082019050610f866000830184610af7565b92915050565b7f4f776e61626c653a206e6577206f776e657220697320746865207a65726f206160008201527f6464726573730000000000000000000000000000000000000000000000000000602082015250565b6000610fe8602683610c33565b9150610ff382610f8c565b604082019050919050565b6000602082019050818103600083015261101781610fdb565b905091905056fea26469706673582212203160c27e05a278032a8098938bd85a9e4164d83cd22c44953d4a6aed4ebabf8a64736f6c634300080e0033",
  "immutableReferences": {},
  "source": "// SPDX-License-Identifier: MIT\npragma solidity >=0.8.0 <0.9.0;\n\nimport \"@openzeppelin/contracts/access/Ownable.sol\";\nimport \"@chainlink/contracts/src/v0.8/interfaces/VRFCoordinatorV2Interface.sol\";\nimport \"@chainlink/contracts/src/v0.8/VRFConsumerBaseV2.sol\";\n\ncontract EvenOdd is Ownable {\n  uint8 constant EVEN_DOOR = 0;\n  uint8 constant ODD_DOOR = 1;\n  uint8 constant FEE_RATE = 2;\n\n  uint256 randNonce = 0;\n\n  struct BetTime {\n    address addr;\n    uint256 value;\n    uint8 door;\n  }\n\n  BetTime[] public betTimes;\n  uint256 betTimeOffset = 0;\n\n  event BetEvent(address addr, uint256 value, uint8 door);\n  event DoorOpenEvent(uint8 door);\n\n  function bet(uint8 _door) external payable {\n    require(_door == EVEN_DOOR || _door == ODD_DOOR);\n    require(msg.value > 0);\n    betTimes.push(BetTime(msg.sender, msg.value, _door));\n    emit BetEvent(msg.sender, msg.value, _door);\n  }\n\n  function randomDoor() external onlyOwner {\n    randNonce++;\n    uint8 door = uint8(uint256(keccak256(abi.encodePacked(block.timestamp, msg.sender, randNonce))) % 2);\n    for (uint256 i = betTimeOffset; i < betTimes.length; i++) {\n      BetTime memory betTime = betTimes[i];\n      if (betTime.door == door) {\n        payable(betTime.addr).transfer(2 * betTime.value - (betTime.value * FEE_RATE) / 100);\n      }\n    }\n    betTimeOffset = betTimes.length;\n    emit DoorOpenEvent(door);\n  }\n\n  function getTotalBet() external view returns (uint256, uint256) {\n    uint256 totalEven = 0;\n    uint256 totalOdd = 0;\n    for (uint256 i = betTimeOffset; i < betTimes.length; i++) {\n      BetTime memory betTime = betTimes[i];\n      if (betTime.door == EVEN_DOOR) {\n        totalEven += betTime.value;\n      } else if (betTime.door == ODD_DOOR) {\n        totalOdd += betTime.value;\n      }\n    }\n    return (totalEven, totalOdd);\n  }\n\n  function getBalance() external view onlyOwner returns (uint256) {\n    return address(this).balance;\n  }\n}\n",
  "sourcePath": "/home/thevi/blockchain/even-odd-contract/contracts/EvenOdd.sol",
  "compiler": {
    "name": "solc",
    "version": "0.8.14+commit.80d49f37.Emscripten.clang"
  },
  "schemaVersion": "3.4.7",
  "updatedAt": "2022-05-31T16:44:25.015Z",
  "devdoc": {
    "kind": "dev",
    "methods": {
      "owner()": {
        "details": "Returns the address of the current owner."
      },
      "renounceOwnership()": {
        "details": "Leaves the contract without owner. It will not be possible to call `onlyOwner` functions anymore. Can only be called by the current owner. NOTE: Renouncing ownership will leave the contract without an owner, thereby removing any functionality that is only available to the owner."
      },
      "transferOwnership(address)": {
        "details": "Transfers ownership of the contract to a new account (`newOwner`). Can only be called by the current owner."
      }
    },
    "version": 1
  },
  "userdoc": {
    "kind": "user",
    "methods": {},
    "version": 1
  }
}