{
  "contractName": "EvenOdd",
  "abi": [
    {
      "inputs": [
        {
          "internalType": "address",
          "name": "have",
          "type": "address"
        },
        {
          "internalType": "address",
          "name": "want",
          "type": "address"
        }
      ],
      "name": "OnlyCoordinatorCanFulfill",
      "type": "error"
    },
    {
      "anonymous": false,
      "inputs": [
        {
          "indexed": false,
          "internalType": "address",
          "name": "addr",
          "type": "address"
        },
        {
          "indexed": false,
          "internalType": "uint256",
          "name": "value",
          "type": "uint256"
        },
        {
          "indexed": false,
          "internalType": "uint8",
          "name": "door",
          "type": "uint8"
        }
      ],
      "name": "BetEvent",
      "type": "event"
    },
    {
      "anonymous": false,
      "inputs": [
        {
          "indexed": false,
          "internalType": "uint8",
          "name": "door",
          "type": "uint8"
        }
      ],
      "name": "DoorOpenEvent",
      "type": "event"
    },
    {
      "anonymous": false,
      "inputs": [
        {
          "indexed": true,
          "internalType": "address",
          "name": "previousOwner",
          "type": "address"
        },
        {
          "indexed": true,
          "internalType": "address",
          "name": "newOwner",
          "type": "address"
        }
      ],
      "name": "OwnershipTransferred",
      "type": "event"
    },
    {
      "inputs": [
        {
          "internalType": "uint256",
          "name": "",
          "type": "uint256"
        }
      ],
      "name": "betTimes",
      "outputs": [
        {
          "internalType": "address",
          "name": "addr",
          "type": "address"
        },
        {
          "internalType": "uint256",
          "name": "value",
          "type": "uint256"
        },
        {
          "internalType": "uint8",
          "name": "door",
          "type": "uint8"
        }
      ],
      "stateMutability": "view",
      "type": "function"
    },
    {
      "inputs": [],
      "name": "owner",
      "outputs": [
        {
          "internalType": "address",
          "name": "",
          "type": "address"
        }
      ],
      "stateMutability": "view",
      "type": "function"
    },
    {
      "inputs": [
        {
          "internalType": "uint256",
          "name": "requestId",
          "type": "uint256"
        },
        {
          "internalType": "uint256[]",
          "name": "randomWords",
          "type": "uint256[]"
        }
      ],
      "name": "rawFulfillRandomWords",
      "outputs": [],
      "stateMutability": "nonpayable",
      "type": "function"
    },
    {
      "inputs": [],
      "name": "renounceOwnership",
      "outputs": [],
      "stateMutability": "nonpayable",
      "type": "function"
    },
    {
      "inputs": [],
      "name": "requestRandomWords",
      "outputs": [],
      "stateMutability": "nonpayable",
      "type": "function"
    },
    {
      "inputs": [
        {
          "internalType": "uint256",
          "name": "",
          "type": "uint256"
        }
      ],
      "name": "s_randomWords",
      "outputs": [
        {
          "internalType": "uint256",
          "name": "",
          "type": "uint256"
        }
      ],
      "stateMutability": "view",
      "type": "function"
    },
    {
      "inputs": [],
      "name": "s_requestId",
      "outputs": [
        {
          "internalType": "uint256",
          "name": "",
          "type": "uint256"
        }
      ],
      "stateMutability": "view",
      "type": "function"
    },
    {
      "inputs": [
        {
          "internalType": "address",
          "name": "newOwner",
          "type": "address"
        }
      ],
      "name": "transferOwnership",
      "outputs": [],
      "stateMutability": "nonpayable",
      "type": "function"
    },
    {
      "inputs": [
        {
          "internalType": "uint8",
          "name": "_door",
          "type": "uint8"
        }
      ],
      "name": "bet",
      "outputs": [],
      "stateMutability": "payable",
      "type": "function"
    },
    {
      "inputs": [],
      "name": "randomDoor",
      "outputs": [],
      "stateMutability": "nonpayable",
      "type": "function"
    },
    {
      "inputs": [],
      "name": "getTotalBet",
      "outputs": [
        {
          "internalType": "uint256",
          "name": "",
          "type": "uint256"
        },
        {
          "internalType": "uint256",
          "name": "",
          "type": "uint256"
        }
      ],
      "stateMutability": "view",
      "type": "function"
    },
    {
      "inputs": [],
      "name": "getBalance",
      "outputs": [
        {
          "internalType": "uint256",
          "name": "",
          "type": "uint256"
        }
      ],
      "stateMutability": "view",
      "type": "function"
    }
  ],
  "bytecode": "0x60a06040526115b0600160146101000a81548167ffffffffffffffff021916908367ffffffffffffffff160217905550736168499c0cffcacd319c818142124b7a15e857ab600260006101000a81548173ffffffffffffffffffffffffffffffffffffffff021916908373ffffffffffffffffffffffffffffffffffffffff1602179055507fd89b2bf150e3b9e13446986e571fb9cab24b13cea0a43ea20a6049a85cc807cc60001b600355620186a0600460006101000a81548163ffffffff021916908363ffffffff16021790555060036004806101000a81548161ffff021916908361ffff1602179055506001600460066101000a81548163ffffffff021916908363ffffffff1602179055506000600755600060095534801561012457600080fd5b50600260009054906101000a900473ffffffffffffffffffffffffffffffffffffffff168073ffffffffffffffffffffffffffffffffffffffff1660808173ffffffffffffffffffffffffffffffffffffffff16815250505061019961018e61020160201b60201c565b61020960201b60201c565b600260009054906101000a900473ffffffffffffffffffffffffffffffffffffffff16600160006101000a81548173ffffffffffffffffffffffffffffffffffffffff021916908373ffffffffffffffffffffffffffffffffffffffff1602179055506102cd565b600033905090565b60008060009054906101000a900473ffffffffffffffffffffffffffffffffffffffff169050816000806101000a81548173ffffffffffffffffffffffffffffffffffffffff021916908373ffffffffffffffffffffffffffffffffffffffff1602179055508173ffffffffffffffffffffffffffffffffffffffff168173ffffffffffffffffffffffffffffffffffffffff167f8be0079c531659141344cd1fd0a4f28419497f9722a3daafe3b4186f6b6457e060405160405180910390a35050565b6080516117056102ef6000396000818161030e015261036201526117056000f3fe6080604052600436106100a75760003560e01c8063d0821b0e11610064578063d0821b0e146101ad578063d908f7b2146101c9578063e0c86289146101e0578063e89e106a146101f7578063f2fde38b14610222578063f6eaffc81461024b576100a7565b806312065fe0146100ac5780631fe543e3146100d7578063715018a6146101005780638494f432146101175780638da5cb5b14610156578063bfe38df514610181575b600080fd5b3480156100b857600080fd5b506100c1610288565b6040516100ce9190610de7565b60405180910390f35b3480156100e357600080fd5b506100fe60048036038101906100f99190610f9b565b61030c565b005b34801561010c57600080fd5b506101156103cc565b005b34801561012357600080fd5b5061013e60048036038101906101399190610ff7565b610454565b60405161014d93929190611081565b60405180910390f35b34801561016257600080fd5b5061016b6104bb565b60405161017891906110b8565b60405180910390f35b34801561018d57600080fd5b506101966104e4565b6040516101a49291906110d3565b60405180910390f35b6101c760048036038101906101c29190611128565b61061d565b005b3480156101d557600080fd5b506101de61075f565b005b3480156101ec57600080fd5b506101f56109e8565b005b34801561020357600080fd5b5061020c610b5c565b6040516102199190610de7565b60405180910390f35b34801561022e57600080fd5b5061024960048036038101906102449190611181565b610b62565b005b34801561025757600080fd5b50610272600480360381019061026d9190610ff7565b610c59565b60405161027f9190610de7565b60405180910390f35b6000610292610c7d565b73ffffffffffffffffffffffffffffffffffffffff166102b06104bb565b73ffffffffffffffffffffffffffffffffffffffff1614610306576040517f08c379a00000000000000000000000000000000000000000000000000000000081526004016102fd9061120b565b60405180910390fd5b47905090565b7f000000000000000000000000000000000000000000000000000000000000000073ffffffffffffffffffffffffffffffffffffffff163373ffffffffffffffffffffffffffffffffffffffff16146103be57337f00000000000000000000000000000000000000000000000000000000000000006040517f1cf993f40000000000000000000000000000000000000000000000000000000081526004016103b592919061122b565b60405180910390fd5b6103c88282610c85565b5050565b6103d4610c7d565b73ffffffffffffffffffffffffffffffffffffffff166103f26104bb565b73ffffffffffffffffffffffffffffffffffffffff1614610448576040517f08c379a000000000000000000000000000000000000000000000000000000000815260040161043f9061120b565b60405180910390fd5b6104526000610ca0565b565b6008818154811061046457600080fd5b90600052602060002090600302016000915090508060000160009054906101000a900473ffffffffffffffffffffffffffffffffffffffff16908060010154908060020160009054906101000a900460ff16905083565b60008060009054906101000a900473ffffffffffffffffffffffffffffffffffffffff16905090565b600080600080600060095490505b6008805490508110156106105760006008828154811061051557610514611254565b5b90600052602060002090600302016040518060600160405290816000820160009054906101000a900473ffffffffffffffffffffffffffffffffffffffff1673ffffffffffffffffffffffffffffffffffffffff1673ffffffffffffffffffffffffffffffffffffffff168152602001600182015481526020016002820160009054906101000a900460ff1660ff1660ff16815250509050600060ff16816040015160ff16036105d6578060200151846105cf91906112b2565b93506105fc565b600160ff16816040015160ff16036105fb578060200151836105f891906112b2565b92505b5b50808061060890611308565b9150506104f2565b5081819350935050509091565b600060ff168160ff1614806106385750600160ff168160ff16145b61064157600080fd5b6000341161064e57600080fd5b600860405180606001604052803373ffffffffffffffffffffffffffffffffffffffff1681526020013481526020018360ff16815250908060018154018082558091505060019003906000526020600020906003020160009091909190915060008201518160000160006101000a81548173ffffffffffffffffffffffffffffffffffffffff021916908373ffffffffffffffffffffffffffffffffffffffff1602179055506020820151816001015560408201518160020160006101000a81548160ff021916908360ff16021790555050507f15d9054ac7345fe07a4ce6d2ff9901210af236fab1f5a7e9f373db555eca4db933348360405161075493929190611081565b60405180910390a150565b610767610c7d565b73ffffffffffffffffffffffffffffffffffffffff166107856104bb565b73ffffffffffffffffffffffffffffffffffffffff16146107db576040517f08c379a00000000000000000000000000000000000000000000000000000000081526004016107d29061120b565b60405180910390fd5b600760008154809291906107ee90611308565b919050555060006002423360075460405160200161080e939291906113b9565b6040516020818303038152906040528051906020012060001c6108319190611425565b9050600060095490505b6008805490508110156109a15760006008828154811061085e5761085d611254565b5b90600052602060002090600302016040518060600160405290816000820160009054906101000a900473ffffffffffffffffffffffffffffffffffffffff1673ffffffffffffffffffffffffffffffffffffffff1673ffffffffffffffffffffffffffffffffffffffff168152602001600182015481526020016002820160009054906101000a900460ff1660ff1660ff168152505090508260ff16816040015160ff160361098d57806000015173ffffffffffffffffffffffffffffffffffffffff166108fc6064600260ff16846020015161093b9190611456565b61094591906114b0565b836020015160026109569190611456565b61096091906114e1565b9081150290604051600060405180830381858888f1935050505015801561098b573d6000803e3d6000fd5b505b50808061099990611308565b91505061083b565b506008805490506009819055507f94bbec3d6d993b934d7186e157dc77ef62ddcb9d8a422e3ff61bc72ef2e45e6d816040516109dd9190611515565b60405180910390a150565b6109f0610c7d565b73ffffffffffffffffffffffffffffffffffffffff16610a0e6104bb565b73ffffffffffffffffffffffffffffffffffffffff1614610a64576040517f08c379a0000000000000000000000000000000000000000000000000000000008152600401610a5b9061120b565b60405180910390fd5b600160009054906101000a900473ffffffffffffffffffffffffffffffffffffffff1673ffffffffffffffffffffffffffffffffffffffff16635d3b1d30600354600160149054906101000a900467ffffffffffffffff1660048054906101000a900461ffff16600460009054906101000a900463ffffffff16600460069054906101000a900463ffffffff166040518663ffffffff1660e01b8152600401610b119594939291906115a8565b6020604051808303816000875af1158015610b30573d6000803e3d6000fd5b505050506040513d601f19601f82011682018060405250810190610b549190611610565b600681905550565b60065481565b610b6a610c7d565b73ffffffffffffffffffffffffffffffffffffffff16610b886104bb565b73ffffffffffffffffffffffffffffffffffffffff1614610bde576040517f08c379a0000000000000000000000000000000000000000000000000000000008152600401610bd59061120b565b60405180910390fd5b600073ffffffffffffffffffffffffffffffffffffffff168173ffffffffffffffffffffffffffffffffffffffff1603610c4d576040517f08c379a0000000000000000000000000000000000000000000000000000000008152600401610c44906116af565b60405180910390fd5b610c5681610ca0565b50565b60058181548110610c6957600080fd5b906000526020600020016000915090505481565b600033905090565b8060059080519060200190610c9b929190610d64565b505050565b60008060009054906101000a900473ffffffffffffffffffffffffffffffffffffffff169050816000806101000a81548173ffffffffffffffffffffffffffffffffffffffff021916908373ffffffffffffffffffffffffffffffffffffffff1602179055508173ffffffffffffffffffffffffffffffffffffffff168173ffffffffffffffffffffffffffffffffffffffff167f8be0079c531659141344cd1fd0a4f28419497f9722a3daafe3b4186f6b6457e060405160405180910390a35050565b828054828255906000526020600020908101928215610da0579160200282015b82811115610d9f578251825591602001919060010190610d84565b5b509050610dad9190610db1565b5090565b5b80821115610dca576000816000905550600101610db2565b5090565b6000819050919050565b610de181610dce565b82525050565b6000602082019050610dfc6000830184610dd8565b92915050565b6000604051905090565b600080fd5b600080fd5b610e1f81610dce565b8114610e2a57600080fd5b50565b600081359050610e3c81610e16565b92915050565b600080fd5b6000601f19601f8301169050919050565b7f4e487b7100000000000000000000000000000000000000000000000000000000600052604160045260246000fd5b610e9082610e47565b810181811067ffffffffffffffff82111715610eaf57610eae610e58565b5b80604052505050565b6000610ec2610e02565b9050610ece8282610e87565b919050565b600067ffffffffffffffff821115610eee57610eed610e58565b5b602082029050602081019050919050565b600080fd5b6000610f17610f1284610ed3565b610eb8565b90508083825260208201905060208402830185811115610f3a57610f39610eff565b5b835b81811015610f635780610f4f8882610e2d565b845260208401935050602081019050610f3c565b5050509392505050565b600082601f830112610f8257610f81610e42565b5b8135610f92848260208601610f04565b91505092915050565b60008060408385031215610fb257610fb1610e0c565b5b6000610fc085828601610e2d565b925050602083013567ffffffffffffffff811115610fe157610fe0610e11565b5b610fed85828601610f6d565b9150509250929050565b60006020828403121561100d5761100c610e0c565b5b600061101b84828501610e2d565b91505092915050565b600073ffffffffffffffffffffffffffffffffffffffff82169050919050565b600061104f82611024565b9050919050565b61105f81611044565b82525050565b600060ff82169050919050565b61107b81611065565b82525050565b60006060820190506110966000830186611056565b6110a36020830185610dd8565b6110b06040830184611072565b949350505050565b60006020820190506110cd6000830184611056565b92915050565b60006040820190506110e86000830185610dd8565b6110f56020830184610dd8565b9392505050565b61110581611065565b811461111057600080fd5b50565b600081359050611122816110fc565b92915050565b60006020828403121561113e5761113d610e0c565b5b600061114c84828501611113565b91505092915050565b61115e81611044565b811461116957600080fd5b50565b60008135905061117b81611155565b92915050565b60006020828403121561119757611196610e0c565b5b60006111a58482850161116c565b91505092915050565b600082825260208201905092915050565b7f4f776e61626c653a2063616c6c6572206973206e6f7420746865206f776e6572600082015250565b60006111f56020836111ae565b9150611200826111bf565b602082019050919050565b60006020820190508181036000830152611224816111e8565b9050919050565b60006040820190506112406000830185611056565b61124d6020830184611056565b9392505050565b7f4e487b7100000000000000000000000000000000000000000000000000000000600052603260045260246000fd5b7f4e487b7100000000000000000000000000000000000000000000000000000000600052601160045260246000fd5b60006112bd82610dce565b91506112c883610dce565b9250827fffffffffffffffffffffffffffffffffffffffffffffffffffffffffffffffff038211156112fd576112fc611283565b5b828201905092915050565b600061131382610dce565b91507fffffffffffffffffffffffffffffffffffffffffffffffffffffffffffffffff820361134557611344611283565b5b600182019050919050565b6000819050919050565b61136b61136682610dce565b611350565b82525050565b60008160601b9050919050565b600061138982611371565b9050919050565b600061139b8261137e565b9050919050565b6113b36113ae82611044565b611390565b82525050565b60006113c5828661135a565b6020820191506113d582856113a2565b6014820191506113e5828461135a565b602082019150819050949350505050565b7f4e487b7100000000000000000000000000000000000000000000000000000000600052601260045260246000fd5b600061143082610dce565b915061143b83610dce565b92508261144b5761144a6113f6565b5b828206905092915050565b600061146182610dce565b915061146c83610dce565b9250817fffffffffffffffffffffffffffffffffffffffffffffffffffffffffffffffff04831182151516156114a5576114a4611283565b5b828202905092915050565b60006114bb82610dce565b91506114c683610dce565b9250826114d6576114d56113f6565b5b828204905092915050565b60006114ec82610dce565b91506114f783610dce565b92508282101561150a57611509611283565b5b828203905092915050565b600060208201905061152a6000830184611072565b92915050565b6000819050919050565b61154381611530565b82525050565b600067ffffffffffffffff82169050919050565b61156681611549565b82525050565b600061ffff82169050919050565b6115838161156c565b82525050565b600063ffffffff82169050919050565b6115a281611589565b82525050565b600060a0820190506115bd600083018861153a565b6115ca602083018761155d565b6115d7604083018661157a565b6115e46060830185611599565b6115f16080830184611599565b9695505050505050565b60008151905061160a81610e16565b92915050565b60006020828403121561162657611625610e0c565b5b6000611634848285016115fb565b91505092915050565b7f4f776e61626c653a206e6577206f776e657220697320746865207a65726f206160008201527f6464726573730000000000000000000000000000000000000000000000000000602082015250565b60006116996026836111ae565b91506116a48261163d565b604082019050919050565b600060208201905081810360008301526116c88161168c565b905091905056fea2646970667358221220c4845e1f7dece6b6c059f244c34cdbad70d49083096b1114c3787296a85a446164736f6c634300080e0033",
  "immutableReferences": {
    "10": [
      {
        "length": 32,
        "start": 782
      },
      {
        "length": 32,
        "start": 866
      }
    ]
  },
  "source": "// SPDX-License-Identifier: MIT\npragma solidity >=0.8.0 <0.9.0;\n\nimport \"@openzeppelin/contracts/access/Ownable.sol\";\nimport \"./VRFv2Consumer.sol\";\n\ncontract EvenOdd is Ownable, VRFv2Consumer {\n  uint8 constant EVEN_DOOR = 0;\n  uint8 constant ODD_DOOR = 1;\n  uint8 constant FEE_RATE = 2;\n\n  uint256 randNonce = 0;\n\n  struct BetTime {\n    address addr;\n    uint256 value;\n    uint8 door;\n  }\n\n  BetTime[] public betTimes;\n  uint256 betTimeOffset = 0;\n\n  event BetEvent(address addr, uint256 value, uint8 door);\n  event DoorOpenEvent(uint8 door);\n\n  function bet(uint8 _door) external payable {\n    require(_door == EVEN_DOOR || _door == ODD_DOOR);\n    require(msg.value > 0);\n    betTimes.push(BetTime(msg.sender, msg.value, _door));\n    emit BetEvent(msg.sender, msg.value, _door);\n  }\n\n  function randomDoor() external onlyOwner {\n    randNonce++;\n    uint8 door = uint8(uint256(keccak256(abi.encodePacked(block.timestamp, msg.sender, randNonce))) % 2);\n    for (uint256 i = betTimeOffset; i < betTimes.length; i++) {\n      BetTime memory betTime = betTimes[i];\n      if (betTime.door == door) {\n        payable(betTime.addr).transfer(2 * betTime.value - (betTime.value * FEE_RATE) / 100);\n      }\n    }\n    betTimeOffset = betTimes.length;\n    emit DoorOpenEvent(door);\n  }\n\n  function getTotalBet() external view returns (uint256, uint256) {\n    uint256 totalEven = 0;\n    uint256 totalOdd = 0;\n    for (uint256 i = betTimeOffset; i < betTimes.length; i++) {\n      BetTime memory betTime = betTimes[i];\n      if (betTime.door == EVEN_DOOR) {\n        totalEven += betTime.value;\n      } else if (betTime.door == ODD_DOOR) {\n        totalOdd += betTime.value;\n      }\n    }\n    return (totalEven, totalOdd);\n  }\n\n  function getBalance() external view onlyOwner returns (uint256) {\n    return address(this).balance;\n  }\n}\n",
  "sourcePath": "/home/thevi/blockchain/even-odd-contract/contracts/EvenOdd.sol",
  "compiler": {
    "name": "solc",
    "version": "0.8.14+commit.80d49f37.Emscripten.clang"
  },
  "schemaVersion": "3.4.7",
  "updatedAt": "2022-06-01T16:44:22.113Z",
  "devdoc": {
    "kind": "dev",
    "methods": {
      "owner()": {
        "details": "Returns the address of the current owner."
      },
      "renounceOwnership()": {
        "details": "Leaves the contract without owner. It will not be possible to call `onlyOwner` functions anymore. Can only be called by the current owner. NOTE: Renouncing ownership will leave the contract without an owner, thereby removing any functionality that is only available to the owner."
      },
      "transferOwnership(address)": {
        "details": "Transfers ownership of the contract to a new account (`newOwner`). Can only be called by the current owner."
      }
    },
    "version": 1
  },
  "userdoc": {
    "kind": "user",
    "methods": {},
    "version": 1
  }
}