{
  "contractName": "VRFv2Consumer",
  "abi": [
    {
      "inputs": [],
      "stateMutability": "nonpayable",
      "type": "constructor"
    },
    {
      "inputs": [
        {
          "internalType": "address",
          "name": "have",
          "type": "address"
        },
        {
          "internalType": "address",
          "name": "want",
          "type": "address"
        }
      ],
      "name": "OnlyCoordinatorCanFulfill",
      "type": "error"
    },
    {
      "anonymous": false,
      "inputs": [
        {
          "indexed": true,
          "internalType": "address",
          "name": "previousOwner",
          "type": "address"
        },
        {
          "indexed": true,
          "internalType": "address",
          "name": "newOwner",
          "type": "address"
        }
      ],
      "name": "OwnershipTransferred",
      "type": "event"
    },
    {
      "inputs": [],
      "name": "owner",
      "outputs": [
        {
          "internalType": "address",
          "name": "",
          "type": "address"
        }
      ],
      "stateMutability": "view",
      "type": "function"
    },
    {
      "inputs": [
        {
          "internalType": "uint256",
          "name": "requestId",
          "type": "uint256"
        },
        {
          "internalType": "uint256[]",
          "name": "randomWords",
          "type": "uint256[]"
        }
      ],
      "name": "rawFulfillRandomWords",
      "outputs": [],
      "stateMutability": "nonpayable",
      "type": "function"
    },
    {
      "inputs": [],
      "name": "renounceOwnership",
      "outputs": [],
      "stateMutability": "nonpayable",
      "type": "function"
    },
    {
      "inputs": [
        {
          "internalType": "uint256",
          "name": "",
          "type": "uint256"
        }
      ],
      "name": "s_randomWords",
      "outputs": [
        {
          "internalType": "uint256",
          "name": "",
          "type": "uint256"
        }
      ],
      "stateMutability": "view",
      "type": "function"
    },
    {
      "inputs": [],
      "name": "s_requestId",
      "outputs": [
        {
          "internalType": "uint256",
          "name": "",
          "type": "uint256"
        }
      ],
      "stateMutability": "view",
      "type": "function"
    },
    {
      "inputs": [
        {
          "internalType": "address",
          "name": "newOwner",
          "type": "address"
        }
      ],
      "name": "transferOwnership",
      "outputs": [],
      "stateMutability": "nonpayable",
      "type": "function"
    },
    {
      "inputs": [],
      "name": "requestRandomWords",
      "outputs": [],
      "stateMutability": "nonpayable",
      "type": "function"
    }
  ],
  "bytecode": "0x60a06040526115b0600160146101000a81548167ffffffffffffffff021916908367ffffffffffffffff160217905550736168499c0cffcacd319c818142124b7a15e857ab600260006101000a81548173ffffffffffffffffffffffffffffffffffffffff021916908373ffffffffffffffffffffffffffffffffffffffff1602179055507fd89b2bf150e3b9e13446986e571fb9cab24b13cea0a43ea20a6049a85cc807cc60001b600355620186a0600460006101000a81548163ffffffff021916908363ffffffff16021790555060036004806101000a81548161ffff021916908361ffff1602179055506001600460066101000a81548163ffffffff021916908363ffffffff16021790555034801561011a57600080fd5b50600260009054906101000a900473ffffffffffffffffffffffffffffffffffffffff168073ffffffffffffffffffffffffffffffffffffffff1660808173ffffffffffffffffffffffffffffffffffffffff16815250505061018f6101846101f760201b60201c565b6101ff60201b60201c565b600260009054906101000a900473ffffffffffffffffffffffffffffffffffffffff16600160006101000a81548173ffffffffffffffffffffffffffffffffffffffff021916908373ffffffffffffffffffffffffffffffffffffffff1602179055506102c3565b600033905090565b60008060009054906101000a900473ffffffffffffffffffffffffffffffffffffffff169050816000806101000a81548173ffffffffffffffffffffffffffffffffffffffff021916908373ffffffffffffffffffffffffffffffffffffffff1602179055508173ffffffffffffffffffffffffffffffffffffffff168173ffffffffffffffffffffffffffffffffffffffff167f8be0079c531659141344cd1fd0a4f28419497f9722a3daafe3b4186f6b6457e060405160405180910390a35050565b608051610c176102e56000396000818161013c01526101900152610c176000f3fe608060405234801561001057600080fd5b506004361061007d5760003560e01c8063e0c862891161005b578063e0c86289146100c6578063e89e106a146100d0578063f2fde38b146100ee578063f6eaffc81461010a5761007d565b80631fe543e314610082578063715018a61461009e5780638da5cb5b146100a8575b600080fd5b61009c60048036038101906100979190610834565b61013a565b005b6100a66101fa565b005b6100b0610282565b6040516100bd91906108d1565b60405180910390f35b6100ce6102ab565b005b6100d861041f565b6040516100e591906108fb565b60405180910390f35b61010860048036038101906101039190610942565b610425565b005b610124600480360381019061011f919061096f565b61051c565b60405161013191906108fb565b60405180910390f35b7f000000000000000000000000000000000000000000000000000000000000000073ffffffffffffffffffffffffffffffffffffffff163373ffffffffffffffffffffffffffffffffffffffff16146101ec57337f00000000000000000000000000000000000000000000000000000000000000006040517f1cf993f40000000000000000000000000000000000000000000000000000000081526004016101e392919061099c565b60405180910390fd5b6101f68282610540565b5050565b61020261055b565b73ffffffffffffffffffffffffffffffffffffffff16610220610282565b73ffffffffffffffffffffffffffffffffffffffff1614610276576040517f08c379a000000000000000000000000000000000000000000000000000000000815260040161026d90610a22565b60405180910390fd5b6102806000610563565b565b60008060009054906101000a900473ffffffffffffffffffffffffffffffffffffffff16905090565b6102b361055b565b73ffffffffffffffffffffffffffffffffffffffff166102d1610282565b73ffffffffffffffffffffffffffffffffffffffff1614610327576040517f08c379a000000000000000000000000000000000000000000000000000000000815260040161031e90610a22565b60405180910390fd5b600160009054906101000a900473ffffffffffffffffffffffffffffffffffffffff1673ffffffffffffffffffffffffffffffffffffffff16635d3b1d30600354600160149054906101000a900467ffffffffffffffff1660048054906101000a900461ffff16600460009054906101000a900463ffffffff16600460069054906101000a900463ffffffff166040518663ffffffff1660e01b81526004016103d4959493929190610aba565b6020604051808303816000875af11580156103f3573d6000803e3d6000fd5b505050506040513d601f19601f820116820180604052508101906104179190610b22565b600681905550565b60065481565b61042d61055b565b73ffffffffffffffffffffffffffffffffffffffff1661044b610282565b73ffffffffffffffffffffffffffffffffffffffff16146104a1576040517f08c379a000000000000000000000000000000000000000000000000000000000815260040161049890610a22565b60405180910390fd5b600073ffffffffffffffffffffffffffffffffffffffff168173ffffffffffffffffffffffffffffffffffffffff1603610510576040517f08c379a000000000000000000000000000000000000000000000000000000000815260040161050790610bc1565b60405180910390fd5b61051981610563565b50565b6005818154811061052c57600080fd5b906000526020600020016000915090505481565b8060059080519060200190610556929190610627565b505050565b600033905090565b60008060009054906101000a900473ffffffffffffffffffffffffffffffffffffffff169050816000806101000a81548173ffffffffffffffffffffffffffffffffffffffff021916908373ffffffffffffffffffffffffffffffffffffffff1602179055508173ffffffffffffffffffffffffffffffffffffffff168173ffffffffffffffffffffffffffffffffffffffff167f8be0079c531659141344cd1fd0a4f28419497f9722a3daafe3b4186f6b6457e060405160405180910390a35050565b828054828255906000526020600020908101928215610663579160200282015b82811115610662578251825591602001919060010190610647565b5b5090506106709190610674565b5090565b5b8082111561068d576000816000905550600101610675565b5090565b6000604051905090565b600080fd5b600080fd5b6000819050919050565b6106b8816106a5565b81146106c357600080fd5b50565b6000813590506106d5816106af565b92915050565b600080fd5b6000601f19601f8301169050919050565b7f4e487b7100000000000000000000000000000000000000000000000000000000600052604160045260246000fd5b610729826106e0565b810181811067ffffffffffffffff82111715610748576107476106f1565b5b80604052505050565b600061075b610691565b90506107678282610720565b919050565b600067ffffffffffffffff821115610787576107866106f1565b5b602082029050602081019050919050565b600080fd5b60006107b06107ab8461076c565b610751565b905080838252602082019050602084028301858111156107d3576107d2610798565b5b835b818110156107fc57806107e888826106c6565b8452602084019350506020810190506107d5565b5050509392505050565b600082601f83011261081b5761081a6106db565b5b813561082b84826020860161079d565b91505092915050565b6000806040838503121561084b5761084a61069b565b5b6000610859858286016106c6565b925050602083013567ffffffffffffffff81111561087a576108796106a0565b5b61088685828601610806565b9150509250929050565b600073ffffffffffffffffffffffffffffffffffffffff82169050919050565b60006108bb82610890565b9050919050565b6108cb816108b0565b82525050565b60006020820190506108e660008301846108c2565b92915050565b6108f5816106a5565b82525050565b600060208201905061091060008301846108ec565b92915050565b61091f816108b0565b811461092a57600080fd5b50565b60008135905061093c81610916565b92915050565b6000602082840312156109585761095761069b565b5b60006109668482850161092d565b91505092915050565b6000602082840312156109855761098461069b565b5b6000610993848285016106c6565b91505092915050565b60006040820190506109b160008301856108c2565b6109be60208301846108c2565b9392505050565b600082825260208201905092915050565b7f4f776e61626c653a2063616c6c6572206973206e6f7420746865206f776e6572600082015250565b6000610a0c6020836109c5565b9150610a17826109d6565b602082019050919050565b60006020820190508181036000830152610a3b816109ff565b9050919050565b6000819050919050565b610a5581610a42565b82525050565b600067ffffffffffffffff82169050919050565b610a7881610a5b565b82525050565b600061ffff82169050919050565b610a9581610a7e565b82525050565b600063ffffffff82169050919050565b610ab481610a9b565b82525050565b600060a082019050610acf6000830188610a4c565b610adc6020830187610a6f565b610ae96040830186610a8c565b610af66060830185610aab565b610b036080830184610aab565b9695505050505050565b600081519050610b1c816106af565b92915050565b600060208284031215610b3857610b3761069b565b5b6000610b4684828501610b0d565b91505092915050565b7f4f776e61626c653a206e6577206f776e657220697320746865207a65726f206160008201527f6464726573730000000000000000000000000000000000000000000000000000602082015250565b6000610bab6026836109c5565b9150610bb682610b4f565b604082019050919050565b60006020820190508181036000830152610bda81610b9e565b905091905056fea26469706673582212201d922f027531be7bc5b4099512ad0e222b2991f9c03b37069ad5ebdd050aa52e64736f6c634300080e0033",
  "immutableReferences": {
    "10": [
      {
        "length": 32,
        "start": 316
      },
      {
        "length": 32,
        "start": 400
      }
    ]
  },
  "source": "// SPDX-License-Identifier: MIT\npragma solidity >=0.8.0 <0.9.0;\n\nimport \"@chainlink/contracts/src/v0.8/interfaces/VRFCoordinatorV2Interface.sol\";\nimport \"@chainlink/contracts/src/v0.8/VRFConsumerBaseV2.sol\";\nimport \"@openzeppelin/contracts/access/Ownable.sol\";\n\ncontract VRFv2Consumer is VRFConsumerBaseV2, Ownable {\n  VRFCoordinatorV2Interface COORDINATOR;\n\n  // Your subscription ID.\n  uint64 subscriptionId = 5552;\n\n  // Rinkeby coordinator. For other networks,\n  // see https://docs.chain.link/docs/vrf-contracts/#configurations\n  address vrfCoordinator = 0x6168499c0cFfCaCD319c818142124B7A15E857ab;\n\n  // The gas lane to use, which specifies the maximum gas price to bump to.\n  // For a list of available gas lanes on each network,\n  // see https://docs.chain.link/docs/vrf-contracts/#configurations\n  bytes32 keyHash = 0xd89b2bf150e3b9e13446986e571fb9cab24b13cea0a43ea20a6049a85cc807cc;\n\n  // Depends on the number of requested values that you want sent to the\n  // fulfillRandomWords() function. Storing each word costs about 20,000 gas,\n  // so 100,000 is a safe default for this example contract. Test and adjust\n  // this limit based on the network that you select, the size of the request,\n  // and the processing of the callback request in the fulfillRandomWords()\n  // function.\n  uint32 callbackGasLimit = 100000;\n\n  // The default is 3, but you can set this higher.\n  uint16 requestConfirmations = 3;\n\n  // For this example, retrieve 1 random values in one request.\n  // Cannot exceed VRFCoordinatorV2.MAX_NUM_WORDS.\n  uint32 numWords = 1;\n\n  uint256[] public s_randomWords;\n  uint256 public s_requestId;\n\n  constructor() VRFConsumerBaseV2(vrfCoordinator) {\n    COORDINATOR = VRFCoordinatorV2Interface(vrfCoordinator);\n  }\n\n  // Assumes the subscription is funded sufficiently.\n  function requestRandomWords() external onlyOwner {\n    // Will revert if subscription is not set and funded.\n    s_requestId = COORDINATOR.requestRandomWords(\n      keyHash,\n      subscriptionId,\n      requestConfirmations,\n      callbackGasLimit,\n      numWords\n    );\n  }\n\n  function fulfillRandomWords(uint256, uint256[] memory randomWords) internal override {\n    s_randomWords = randomWords;\n  }\n}\n",
  "sourcePath": "/home/thevi/blockchain/even-odd-contract/contracts/VRFv2Consumer.sol",
  "compiler": {
    "name": "solc",
    "version": "0.8.14+commit.80d49f37.Emscripten.clang"
  },
  "schemaVersion": "3.4.7",
  "updatedAt": "2022-06-01T16:44:22.115Z",
  "devdoc": {
    "kind": "dev",
    "methods": {
      "owner()": {
        "details": "Returns the address of the current owner."
      },
      "renounceOwnership()": {
        "details": "Leaves the contract without owner. It will not be possible to call `onlyOwner` functions anymore. Can only be called by the current owner. NOTE: Renouncing ownership will leave the contract without an owner, thereby removing any functionality that is only available to the owner."
      },
      "transferOwnership(address)": {
        "details": "Transfers ownership of the contract to a new account (`newOwner`). Can only be called by the current owner."
      }
    },
    "version": 1
  },
  "userdoc": {
    "kind": "user",
    "methods": {},
    "version": 1
  }
}